:200000000C94DA150C940B160C940B160C940B160C940B160C940B160C940B160C940B160A
:200020000C940B160C940B160C940B160C940B160C940B160C940B160C940B160C940B16B8
:200040000C940B160C945DCE0C940B160C940B160C940B160C940B160C9436490C940E4003
:200060000C940B160C94185A0C940B160C940B160C940B160C940B160C940B160C940B1627
:200080000C940B160C940B160C940B160C940B160C940B160C940B160C940B160C940B1658
:2000A0000C940B160C940B160C940B160C940B160C940B160C940B160C940B160C940B1638
:2000C0000C940B160C940B160C940B160C940B160C940B160C940B160C940B160C940B1618
:2000E0000C940B163C903F902E90329038907690439047904D90519055905B905F9063903C
:20010000769069906D907190B695BB95C095CA95D4954D96DE95E695EE95F89502960C960F
:200120001B9625964D962F9639964396084AD73B3BCE016E84BCBFFDC12F3D6C74319ABD96
:2001400056833DDA3D00C77F11BED9E4BB4C3E916BAAAABE000000803F05A84CCDB2D44EF4
:20016000B93836A9020C50B9918688083CA6AAAA2ABE000000803F004E414E494E495459AA
:20018000494E46CDCCCC3D0AD7233C17B7D13877CC2B329595E6241FB14F0A00002041006B
:2001A00000C84200401C4620BCBE4CCA1B0E5AAEC59D74434F4D4D554E49434154494F4E06
:2001C0000044525952554E004552524F525300494E464F004543484F0047322F473320626F
:2001E000616420706172616D65746572730A00536C6565702E2E2E00486F6D6520585920DF
:2002000066697273740A00486F6D6520585920666972737400205A3A200020593A20004221
:20022000656420583A2000436C69636B20746F20726573756D652E2E2E004E6F206D6F76D0
:20024000652E00456E642066696C65206C6973740A00426567696E2066696C65206C697341
:20026000740A00286E6F2066696C6529005344207072696E74696E67206279746520004EAE
:200280006F74205344207072696E74696E670A0043757272656E742066696C653A2000250D
:2002A00069730025696D20256973002569682025696D2025697300256964202569682025C7
:2002C000696D202569730025697920256964202569682025696D20256973005072696E74AF
:2002E0002074696D653A2000D401CF01C801C101B3016F66660044454255473A004B494C35
:200300004C45442E20004D3131332053006F6B004A6F76692054656368204F66662E002CBA
:2003200020002C2000544845524D414C5F50524F54454354494F4E004155544F5245504F6F
:2003400052545F53445F53544154555300454D455247454E43595F5041525345520043416F
:2003600053455F4C494748545F4252494748544E45535300544F47474C455F4C494748541D
:200380005300534F4654574152455F504F574552004255494C445F50455243454E54004C87
:2003A0004556454C494E475F44415441005A5F50524F4245004155544F4C4556454C005088
:2003C00052494E545F4A4F420050524F4752455353004155544F5245504F52545F54454DD7
:2003E0005000564F4C554D455452494300454550524F4D0053455249414C5F584F4E5F5810
:200400004F4646004649524D574152455F4E414D453A4D61726C696E20312E312E39202828
:200420004769746875622920534F555243455F434F44455F55524C3A68747470733A2F2F6E
:200440006769746875622E636F6D2F4D61726C696E4669726D776172652F4D61726C696E4B
:200460002050524F544F434F4C5F56455253494F4E3A312E30204D414348494E455F54597B
:2004800050453A4A6F766920546563682045585452554445525F434F554E543A31205555A1
:2004A00049443A63656465326132662D343161322D343734382D396231322D6335356336D2
:2004C000326633363766660A002F2F20004D31343520533C696E6465783E206F7574206F9D
:2004E000662072616E67652028302D31290A00205400205200416363656C65726174696F1E
:200500006E3A20500020466C6F773A2000000136372603FFFFFF353C3D380EFFFFFF312ECD
:20052000303E12FFFFFFFF28FF0C0809FFFFFF1A1C18FFFF2A08440AFF4343290A006162B7
:200540006C656420286D696E2074656D702000436F6C642065787472756465732061726576
:20056000200020643A0020693A0020703A004E6F2063617365206C696768740A004265644A
:20058000204C6576656C696E6720004661696C656420746F20656E61626C652042656420CB
:2005A0004C6576656C696E670A00426564204C6576656C20436F7272656374696F6E204D33
:2005C00061747269783A00454550524F4D204F4B0A003F5A206F7574206F662072616E675F
:2005E0006520282D323020746F203230290A003A200050726F6265205A204F6666736574B4
:20060000004163746976652045787472756465723A2000496E76616C696420657874727592
:200620006465720A0024F4D43050C38E20C2A24017828B7011127A910D816CD90AA861E16B
:2006400008C7586607615143061E4B5D05C145A7041A411104093D9803713931034036DB0F
:200660000265339102D4305402802E1D02632CEE01752AC501B028A001102781018F2564F9
:20068000012B244B01E0223401AC211F018D200D01801FFC00841EED00971DDF00B81CD27C
:2006A00000E61BC600201BBC00641AB200B219A8000A19A0006A189900D117910040178BA0
:2006C00000B516840031167E00B31579003A157300C7146F0058146A00EE1366008813637E
:2006E0000025135E00C7125B006C12570015125400C111510070114F0021114B00D6104941
:20070000008D1047004610440002104200C00F4000800F3E00420F3C00060F3B00CB0E383D
:2007200000930E37005C0E3500270E3400F30D3200C10D3100900D3000600D2E00320D2DD4
:2007400000050D2C00D90C2B00AE0C2900850C29005C0C2700350C27000E0C2600E80B2460
:2007600000C40B2400A00B23007D0B23005A0B2100390B2100180B2000F80A1F00D90A1EBD
:2007800000BB0A1E009D0A1D00800A1D00630A1C00470A1B002C0A1B00110A1A00F7091A76
:2007A00000DD091900C4091900AB091900920917007B091800630917004C091600360916F6
:2007C00000200916000A091500F5081500E0081400CC081400B8081400A40814009008137D
:2007E000007D0812006B08130058081200460812003408110023081100120811000108113C
:2008000000F0071000E0071000D0071000C0071000B0070F00A107100091070E0083070F5F
:200820000074070F0065070E0057070E0049070E003B070D002E070E0020070D0013070DFD
:200840000006070D00F9060C00ED060D00E0060C00D4060C00C8060C00BC060C00B0060C31
:2008600000A4060B0099060C008D060B0082060B0077060B006C060B0061060A0057060B09
:20088000004C060A0042060A0038060A002E060A0024060A001A060A001006090007060A90
:2008A00000FD050900F4050900EB050900E2050900D9050900D0050900C7050900BE0509DC
:2008C00000B5050800AD050800A50509009C050800940508008C050800840508007C0508EC
:2008E00000740508006C050700650508005D050700560508004E05070047050700400508C7
:200900000038050700310507002A050700230507001C050600160507000F0507000805067A
:200920000002050700FB040600F5040700EE040600E8040600E2040700DB040600D5040609
:2009400000CF040600C9040600C3040600BD040600B7040600B1040500AC040600A6040676
:2009600000A00405009B04060095040500900406008A04050085040500800406007A0405C3
:200980000075040500700405006B04050066040500610405005C04050057040500520405F3
:2009A000004D04050048040500430405003E0404003A04050035040500300404002C040510
:2009C0000027040400230405001E0404001A04040016040500110404000D04040009040515
:2009E000000404040000040400FC030400F8030400F4030400F0030400EC030400E803040D
:200A000000E4030400E0030400DC030400D8030400D4030400D0030400CC030400C80303EF
:200A200000C503030024F404D9201BC40C5C0E9804C4095F0265077101F405F900FB04B335
:200A40000048048700C10369005803550003034500BE023A008402310053022A002902251B
:200A60000004022000E4011C00C8011900AF0117009801140084011300710110006101106D
:200A80000051010E0043010D0036010B002B010B0020010B00150109000C010900030108BF
:200AA00000FB000800F3000800EB000700E4000600DE000600D8000600D2000600CC0005F1
:200AC00000C7000500C2000500BD000400B9000400B5000400B1000400AD000400A9000439
:200AE00000A5000300A20003009F0004009B0003009800030095000200930003009000030D
:200B0000008D0002008B000300880002008600020084000300810002007F0002007D00029C
:200B2000007B0002007900020077000100760002007400020072000100710002006F000200
:200B4000006D0001006C0002006A0001006900020067000100660001006500010064000248
:200B6000006200010061000100600001005F0002005D0001005C0001005B0001005A00017C
:200B80000059000100580001005700010056000100550001005400010053000000530001A1
:200BA000005200010051000100500001004F0001004E0000004E0001004D0001004C0001B7
:200BC000004B0000004B0001004A00010049000100480000004800010047000100460000CA
:200BE0000046000100450000004500010044000100430000004300010042000000420001D2
:200C0000004100000041000100400001003F0000003F0001003E0000003E0001003D0000D7
:200C2000003D0001003C0000003C0000003C0001003B0000003B0001003A0000003A0001D5
:200C40000039000000390001003800000038000000380001003700000037000100360000D3
:200C60000036000000360001003500000035000000350001003400000034000000340001CA
:200C80000033000000330000003300010032000000320000003200010031000000310000C1
:200CA00000310001003000000030000000300001002F0000002F0000002F0000002F0001B4
:200CC000002E0000002E0000002E0001002D0000002D0000002D0000002D0001002C0000A8
:200CE000002C0000002C0000002C0001002B0000002B0000002B0000002B0001002A000098
:200D0000002A0000002A0000002A0001002900000029000000290000002900000029000186
:200D2000002800000028000000280000002800000028000100270000002700000027000075
:200D4000002700000027000100260000002600000026000000260000002600010025000060
:200D600000250000002500000025000000250000002500010024000000240000002400004D
:200D8000002400000024000100230000002300000023000000230000002300000023000038
:200DA000002300010022000000220000002200000022000000220000002200010021000021
:200DC00000210000002100000021000000210000002100000021000100200000002000000C
:200DE000002000000020000000200000002000000020000000200001001F0000001F0000F4
:200E0000001F0000001F0000001F0000001F0000001F0001001E0000001E0000001E0000DC
:200E2000001E000000393000003325000087190000B00F0000DB080000BD0400007402005A
:200E4000003F01000053746570732F6D6D004A65726B00416363656C65726174696F6E00E4
:200E600056656C6F636974790050726F6265205A204F66667365740050726F6265205A2098
:200E80004F666673657400436F6E74726F6C0046696C2E204469612E0046696C2E2044694F
:200EA000612E004F6666004F6E20004520696E206D6D3300436F6E74726F6C0043616E6EE1
:200EC0006F7420656E746572207375626469723A2000052E2E004D61696E00000000000107
:200EE0000204040000001C1C0C0404040201000000000004081000000000002D2D2D2D2D98
:200F00002D007C4D61726C696E7C002D2D2D2D2D2D00687474703A2F2F6D61726C696E66FA
:200F2000772E6F726700687474703A2F2F6D61726C696E66772E6F72670020312E312E397F
:200F4000002020506C616E6E657242756666657242797465733A20002046726565204D6552
:200F60006D6F72793A2000436F6D70696C65643A2041707220313520323032300A00207C96
:200F800020417574686F723A20284A6F7669546563682C20313420417072696C20323032A3
:200FA00030290A00323031382D30382D303100204C61737420557064617465643A200031BA
:200FC0002E312E390A004D61726C696E0020536F6674776172652052657365740A002057CF
:200FE00061746368646F672052657365740A002042726F776E206F75742052657365740A1D
:20100000002045787465726E616C2052657365740A00506F77657255700A00737461727436
:201020000A006175746F25692E67006572726F722077726974696E6720746F2066696C65B9
:201040000A00456E6473746F707320256320256320256320256300205A3A0020593A00200F
:20106000583A00656E6473746F7073206869743A2000446F6E6520736176696E6720666992
:201080006C652E0A004D32390020010E01B001F8002002EA00D002DC00D003CD006005BC3B
:2010A00000B007AC00401A6E00E0245A00D0343800A03C1900A03D1400203E0F00803E0A50
:2010C00000D03E0500103F00004531204572723A204D415854454D50004572723A204D4168
:2010E0005854454D5020424544004D415854454D50207472696767657265640045312045A3
:2011000072723A204D494E54454D50004572723A204D494E54454D5020424544004D494E0B
:2011200054454D5020747269676765726564004D383420582059205A204500202F00204262
:20114000403A0020403A0025753A2530327500253032753A25303275002D2D2D005344005B
:201160002020202020200020202020004578747275646572004D6F7665205A004D6F766534
:201180002059004D6F76652058004F6666004F6E2000536F667420456E6473746F707300C3
:2011A0005072657061726500496E697469616C697A6520454550524F4D00436F6E74726FF1
:2011C0006C00526573746F7265206661696C73616665004C6F61642073657474696E677353
:2011E00000496E697469616C697A6520454550524F4D0053746F72652073657474696E67CA
:20120000730046696C616D656E74004D6F74696F6E0054656D7065726174757265004D6179
:20122000696E00507265686561742041425320636F6E66005072656865617420504C41206C
:20124000636F6E66005049442D44005049442D44005049442D49005049442D4900504944C9
:201260002D50005049442D5000200220466163740020022046616374002002204D617800AF
:201280002002204D6178002002204D6178002002204D696E002002204D696E002002204D23
:2012A000696E004F6666004F6E20004175746F74656D700046616E20737065656400466123
:2012C0006E2073706565640046616E207370656564004265640042656400426564004E6F4B
:2012E0007A7A6C65004E6F7A7A6C65004E6F7A7A6C6500436F6E74726F6C0053746F726537
:201300002073657474696E6773004265640042656400426564004E6F7A7A6C65004E6F7A62
:201320007A6C65004E6F7A7A6C650046616E2073706565640046616E20737065656400460E
:20134000616E2073706565640054656D7065726174757265004B494C4C45442E2000535455
:201360004F505045442E20005072696E7465722073746F707065642064756520746F2065BE
:2013800072726F72732E2046697820746865206572726F7220616E6420757365204D393956
:2013A0003920746F20726573746172742E202854656D7065726174757265206973207265D5
:2013C0007365742E205365742069742061667465722072657374617274696E67290A004E34
:2013E0006F20436865636B73756D2077697468206C696E65206E756D6265722C204C617372
:2014000074204C696E653A20004E6F20436865636B73756D2077697468206C696E65206E14
:20142000756D6265722C204C617374204C696E653A2000636865636B73756D206D69736D86
:20144000617463682C204C617374204C696E653A20004C696E65204E756D626572206973FD
:20146000206E6F74204C617374204C696E65204E756D6265722B312C204C617374204C6905
:201480006E653A20004D313130004D33310053442072656164206572726F720A00446F6EC7
:2014A00065207072696E74696E672066696C650A0020496E76616C696420657874727564CF
:2014C000657220000000E0C00000C8C10000000000003E4300003E4300004843486F6D69D2
:2014E0006E67206661696C6564000A0A426564204C6576656C20436F7272656374696F6E23
:20150000204D61747269783A00202B000A436F7272656374656420426564204865696768DC
:20152000742076732E2042656420546F706F6C6F67793A0A00202B000A426564204865697E
:2015400067687420546F706F6772617068793A0A2020202B2D2D2D204241434B202D2D2BCF
:201560000A2020207C20202020202020202020207C0A204C207C20202020282B292020203B
:20158000207C20520A2045207C20202020202020202020207C20490A2046207C20282D2943
:2015A000204E20282B29207C20470A2054207C20202020202020202020207C20480A202076
:2015C000207C20202020282D29202020207C20540A2020207C2020202020202020202020BB
:2015E0007C0A2020204F2D2D2046524F4E54202D2D2B0A2028302C30290A004D65616E205C
:201600006F662073616D706C656420706F696E74733A200020643A200020623A2000457168
:201620006E20636F656666696369656E74733A20613A2000202844525952554E2900473247
:2016400039204175746F20426564204C6576656C696E67003F20284C2C522C462C4229209D
:201660006F7574206F6620626F756E64732E0A003F50726F626520706F696E7473202859A5
:201680002920697320696D706C61757369626C652028322D32292E0A003F50726F626520DD
:2016A000706F696E74732028582920697320696D706C61757369626C652028322D32292EE1
:2016C0000A003F2856296572626F7365206C6576656C20697320696D706C61757369626C14
:2016E000652028302D34292E0A005654726176206D696E005654726176206D696E005654F3
:20170000726176206D696E00566D696E00566D696E00566D696E00566D6178204500566D8A
:201720006178204500566D6178204500566D6178205A00566D6178205A00566D6178205A28
:2017400000566D6178205900566D6178205900566D6178205900566D6178205800566D6112
:2017600078205800566D61782058004D6F74696F6E00416D6178204500416D617820450017
:20178000416D6178205A00416D6178205A00416D6178205900416D6178205900416D6178C0
:2017A000205800416D6178205800412D74726176656C00412D74726176656C00412D726575
:2017C000747261637400412D7265747261637400416363656C00416363656C004D6F74693F
:2017E0006F6E0056652D6A65726B0056652D6A65726B0056652D6A65726B00567A2D6A6584
:20180000726B00567A2D6A65726B0056792D6A65726B0056792D6A65726B0056792D6A6527
:20182000726B0056782D6A65726B0056782D6A65726B0056782D6A65726B004D6F74696FCE
:201840006E004573746570732F6D6D004573746570732F6D6D005A73746570732F6D6D008E
:201860005A73746570732F6D6D005973746570732F6D6D005973746570732F6D6D005873E9
:20188000746570732F6D6D005873746570732F6D6D004D6F74696F6E00526573656E643AE2
:2018A00020006F6B0020746F6F206C6F6E6720657874727573696F6E2070726576656E74B7
:2018C00065640A0020636F6C6420657874727573696F6E2070726576656E7465640A006209
:2018E0007573793A2070617573656420666F7220696E7075740A00627573793A2070617587
:2019000073656420666F7220757365720A00627573793A2070726F63657373696E670A00D7
:201920004B494C4C45442E20004B494C4C20636175736564206279204B494C4C2062757431
:20194000746F6E2F70696E0A004B494C4C45442E20004B494C4C20636175736564206279F7
:2019600020746F6F206D75636820696E6163746976652074696D65202D2063757272656EEA
:201980007420636F6D6D616E643A2000506C65617365207265736574005052494E544552B9
:2019A0002048414C544544005072696E7465722068616C7465642E206B696C6C2829206311
:2019C000616C6C6564210A00656E7175657565696E672022000000E0C00000C8C100000039
:2019E00000000048420000484200008040000000005761726E696E673A20486F6D696E6781
:201A00002042756D702044697669736F72203C20310A000202040000A0400000A040000093
:201A20000040000045430000574300004843FFFFFF4261636B004E65787420636F726E6575
:201A4000720053746F72652073657474696E6773004C6F61642073657474696E6773004C19
:201A60006576656C20636F726E6572730050726F6265205A204F66667365740050726F6212
:201A800065205A204F6666736574004F6666004F6E2000426564204C6576656C696E670087
:201AA0004C6576656C20626564004732380A47323900473239004175746F20686F6D650062
:201AC0004732380050726570617265004D343238005072656865617420504C4100436F6FB4
:201AE0006C646F776E0050726568656174204142530044697361626C65207374657070659E
:201B00007273004D38340053657420686F6D65206F66667365747300426564204C65766561
:201B20006C696E67004175746F20686F6D6500473238004D6F76652061786973004D616965
:201B40006E004D6F76652058004D6F76652059004D6F7665205A0045787472756465720094
:201B60004D6F766520302E316D6D004D6F766520316D6D004D6F76652031306D6D004D6FD5
:201B800076652061786973004578747275646572004D6F7665205A004D6F76652059004DD4
:201BA0006F766520580020746F6F206C6F6E6720657874727573696F6E2070726576656E60
:201BC0007465640A0020636F6C6420657874727573696F6E2070726576656E7465640A00F4
:201BE00000002100240027002A002D003000330001010000040107010A010000220025005E
:201C000028002B002E003100340002010000050108010B01000020002300260029002C0002
:201C20002F0032000001000003010601090105050505070508080808020202020A0A0808C1
:201C40000404040401010101010101010303030303030303040707070C0C0C0C0C0C0C0CDB
:201C60000202020206060606060606060B0B0B0B0B0B0B0B010210202008081020401020D1
:201C800040800201020108040201010204081020408080402010080402018004020180402A
:201CA000201008040201080402010102040810204080010204081020408000000A0B0209B8
:201CC0000C0D0E0807030401000000000000000000000000000000000000000000000000C6
:201CE0000000000000001211100000000000000000000000000000000000000000000000B1
:201D00004D3234004D323320257300556E6B6E6F776E20636F6D6D616E643A202200507279
:201D20006F62696E67206661696C65640A0050726F62696E67206661696C656400205A3AFB
:201D4000200020593A200042656420583A2000454550524F4D206461746173697A652065F1
:201D600072726F722E0A00290A002062797465733B20637263200053657474696E677320C8
:201D800053746F726564202800290A002062797465733B2063726320002073746F726564AC
:201DA0002073657474696E677320726574726965766564202800202863616C63756C6174CF
:201DC000656429210A0020213D2000454550524F4D20435243206D69736D61746368202DC5
:201DE000202873746F7265642920002053697A653A2000496E6465783A2000204D61726CAE
:201E0000696E3D563536290A0028454550524F4D3D00454550524F4D2076657273696F6E9F
:201E2000206D69736D61746368200020573A0042656420636F6F6C696E672E2E2E00426514
:201E4000642068656174696E672E2E2E00205A3A0020593A0020436F756E7420583A002032
:201E6000453A00205A3A0020593A00583A003A004361703A00205A00205900580020204D8A
:201E800061783A2000205A00205900580020204D696E3A20004F6E20004F666600536F66E6
:201EA0007420656E6473746F70733A200020643A0020693A0020703A00496E76616C6964B2
:201EC0002065787472756465720A004B64200023646566696E652044454641554C545F0084
:201EE0004B69200023646566696E652044454641554C545F004B70200023646566696E6593
:201F00002044454641554C545F00504944204175746F74756E652066696E69736865642160
:201F20002050757420746865206C617374204B702C204B6920616E64204B6420636F6E7343
:201F400074616E74732066726F6D2062656C6F7720696E746F20436F6E666967757261743E
:201F6000696F6E2E680A00504944204175746F74756E65206661696C6564212074696D65B4
:201F80006F75740A00453120544845524D414C2052554E41574159004245442054484552D7
:201FA0004D414C2052554E4157415900546865726D616C2052756E6177617900453120484E
:201FC000656174696E67206661696C6564004265642068656174696E67206661696C656474
:201FE0000048656174696E67206661696C656400504944204175746F74756E6520666169FA
:202000006C6564212054656D706572617475726520746F6F20686967680A00204B643A2057
:2020200000204B693A2000204B703A20000A20436C617373696320504944200A0020547541
:202040003A2000204B753A2000206D61783A2000206D696E3A200020643A20002062696144
:20206000733A2000504944204175746F74756E65206661696C6564212054656D70657261AD
:202080007475726520746F6F20686967680A00504944204175746F74756E65207374617218
:2020A000740A00504944204175746F74756E65206661696C656421204261642065787472A0
:2020C00075646572206E756D6265720A004F666673657473206170706C696564004572729B
:2020E0003A20546F6F206661722100546F6F206661722066726F6D207265666572656E6311
:202100006520706F696E740A007C3C3E5E2B3D3F2F5B5D3B2C2A225C00486F6D65202573D4
:2021200025732573206669727374002066697273740A005A0059005800486F6D65200053CE
:20214000442063617264206F6B0A006F70656E526F6F74206661696C65640A00766F6C75D2
:202160006D652E696E6974206661696C65640A00534420696E6974206661696C0A00577222
:202180006974696E6720746F2066696C653A20006F70656E206661696C65642C2046696C69
:2021A000653A20006F70656E206661696C65642C2046696C653A200046696C652073656C1F
:2021C00065637465640A002053697A653A200046696C65206F70656E65643A200020666977
:2021E0006C653A2000646F696E67006672657368004E6F772000454E4420535542524F5560
:2022000054494E450A002220706F73002220706172656E743A2200535542524F5554494EFD
:20222000452043414C4C207461726765743A22004B494C4C45442E2000747279696E67205A
:20224000746F2063616C6C207375622D67636F64652066696C6573207769746820746F6FC5
:20226000206D616E79206C6576656C732E204D4158206C6576656C2069733A004572726FA4
:20228000723A00001C1F11111F00000006191803130C00040E1F041C000000000E13151125
:2022A0000E00001C10181705060500040A0A0A0A11110E0C12120C00000000001F151115B3
:2022C0001F0000436172642072656D6F766564004361726420696E736572746564004A6FA2
:2022E000766920546563682052656164792E005072696E74696E672E2E2E005072696E7436
:2023000020706175736564005072696E742061626F72746564005072696E742066726F6D2C
:202320002053440053746F70207072696E7400526573756D65207072696E74004E6F205305
:20234000442063617264005061757365207072696E7400436F6E74726F6C0050726570615B
:2023600072650054756E6500496E666F2073637265656E00466C6F7700466C6F7700466CDC
:202380006F770046616E2073706565640046616E2073706565640046616E20737065656485
:2023A000004265640042656400426564004E6F7A7A6C65004E6F7A7A6C65004E6F7A7A6CDB
:2023C00065005370656564005370656564005370656564004D61696E005072656865617477
:2023E00020504C4120456E64005072656865617420504C41204265640050726568656174EF
:2024000020504C41005072657061726500507265686561742041425320456E6400507265D3
:2024200068656174204142532042656400507265686561742041425300507265706172654B
:202440000048617264636F6465642044656661756C742053657474696E6773204C6F616408
:2024600065640A0070170000B80B000032000000E8030000000034430000344300000040F4
:202480000000C8410000C842D723A242F6428145C3B511433A0A0020286D6D290020204D65
:2024A000383531205A005A2D50726F6265204F66667365740020440020490020204D333041
:2024C0003420500020440020490020204D3330312050005049442073657474696E67733A52
:2024E0000A0020460020420020480020204D3134352053004D6174657269616C206865618B
:2025000074757020706172616D65746572733A0A0020204D3432302053004175746F204239
:202520006564204C6576656C696E673A0A00205A0020590020204D323036205800486F6D84
:2025400065206F66667365743A0A00204500205A0020590020580020540020530020204DE7
:2025600032303520510020453C6D61785F655F6A65726B3E0020583C6D61785F785F6A6560
:20258000726B3E20593C6D61785F795F6A65726B3E205A3C6D61785F7A5F6A65726B3E00E6
:2025A000416476616E6365643A20513C6D696E5F7365676D656E745F74696D655F75733EF5
:2025C00020533C6D696E5F66656564726174653E20543C6D696E5F74726176656C5F666520
:2025E0006564726174653E0020540020520020204D323034205000416363656C657261742B
:20260000696F6E2028756E6974732F7332293A20503C7072696E745F616363656C3E2052E2
:202620003C726574726163745F616363656C3E20543C74726176656C5F616363656C3E0AF7
:2026400000204500205A0020590020204D3230312058004D6178696D756D20416363656CB4
:2026600065726174696F6E2028756E6974732F7332293A0A00204500205A00205900202014
:202680004D3230332058004D6178696D756D206665656472617465732028756E6974732F85
:2026A00073293A0A00204500205A0020590020204D393220580053746570732070657220DC
:2026C000756E69743A0A0020204D3230302044300A0020204D323030204400204469736115
:2026E000626C65640A0046696C616D656E742073657474696E67733A0020204D31343920F3
:2027000043203B20556E69747320696E2043656C736975730A002020473231202020203B4A
:2027200000FFFDFCFAF8F6F4F2F0EEECEAE9E7E5E3E1E0DEDCDAD9D7D5D4D2D0CFCDCBCA06
:20274000C8C7C5C3C2C0BFBDBCBAB9B7B6B4B3B2B0AFADACAAA9A8A6A5A4A2A1A09E9D9C53
:202760009A99989795949392908F8E8D8B8A8988878684838281807F7E7D7B7A7978777665
:202780007574737271706F6E6D6C6B6A696867666564636261605F5E5D5C5B5A5958585787
:2027A00056555453525150504F4E4D4C4B4A4A4948474646454443424241403F3E3E3D3C06
:2027C0003B3B3A39383837363535343332323130302F2E2E2D2C2B2B2A29292827272625F6
:2027E0002524232322212120201F1E1E1D1C1C1B1B1A191918181716161515141313121279
:202800001111100F0F0E0E0D0D0C0C0B0A0A090908080707060605050404030302020100A2
:20282000006F70656E206661696C65642C2046696C653A200043616E6E6F74206F70656E06
:202840002073756264697220006563686F3A004572726F722077726974696E6720746F2085
:20286000454550524F4D210A006265640A002C2073797374656D2073746F707065642120DF
:202880004865617465725F49443A20004265642068656174696E67206661696C65640048C1
:2028A000656174696E67206661696C65640045312048656174696E67206661696C65640040
:2028C00048656174696E67206661696C65640040012C0173012201AB011801F3010E01489E
:2028E000020401AC02FA002A03F000C303E6008004DC006D05D2006C06C800C707BE007086
:2029000009B4006D0BAA00CB0DA000CF138C00F21B7800E9246400142E50009C353C00B8A5
:202920003A2800A03D14000B3F0000453120544845524D414C2052554E4157415900424589
:202940004420544845524D414C2052554E4157415900546865726D616C2052756E61776164
:202960007900545249474745524544006F70656E003A20007A5F6D696E00795F6D696E00FC
:20298000785F6D696E005265706F7274696E6720656E6473746F70207374617475730A0077
:2029A000000000010000000100008000555555000000400033333300AAAA2A004992240040
:2029C00000002000C7711C0099991900D1451700555515003BB1130024491200111111009B
:2029E000000010000F0F0F00E3380E0043790D00CCCC0C00C3300C00E8A20B0064210B00E0
:202A0000AAAA0A00703D0A009DD80900427B090092240900DCD30800888808001042080075
:202A200000000800F0C107008787070075500700711C07003EEB0600A1BC060069900600D0
:202A400066660600703E06006118060017F4050074D105005BB00500B290050062720500E7
:202A60005555050078390500B81E0500050505004EEC040087D40400A1BD040090A70400CD
:202A800049920400C17D0400EE690400C7560400444404005C3204000821040041100400F9
:202AA000000004003FF00300F8E0030026D20300C3C30300CCB503003AA803000A9B030070
:202AC000388E0300C08103009F750300D0690300505E03001D53030034480300913D030022
:202AE0003333030016290300381F030097150300300C0300030303000BFA020049F1020097
:202B0000BAE802005CE002002DD802002DD0020059C80200B0C0020031B90200DAB10200BF
:202B2000AAAA0200A0A30200BC9C0200FA9502005C8F0200DF88020082820200457C0200F0
:202B40002776020027700200436A02007C640200D05E02003F590200C853020046696C6545
:202B60002064656C657465643A0044656C6574696F6E206661696C65642C2046696C653A65
:202B8000200050726F7465637465642050696E0A0020573A004520436F6F6C696E672E2EDD
:202BA0002E00452048656174696E672E2E2E000095F2E5EF11241FBECFEFD1E2DEBFCDBF31
:202BC00000E00CBF13E0A0E0B2E0E0ECFFEF01E00BBF02C007900D92AA33B107D9F723E17F
:202BE000AAE3B3E001C01D92AB38B207E1F715E1C9EDD5E100E006C021970109802FFE0159
:202C00000E943EFFC83DD10780E00807A9F70E948EEA0C94CFFF0C9400002F923F924F924E
:202C20005F926F927F928F929F92AF92BF92CF92DF92EF92FF920F931F93CF93DF93CDB71D
:202C4000DEB7CB56D1090FB6F894DEBF0FBECDBF21E020931507809192068D3411F40C94BE
:202C6000391E843511F40C942D2B873411F00C94792B20909006309091063CE1231631041F
:202C800009F444C694F454E02516310444F482E0281631040CF03EC037FE35C0E6C794E0AF
:202CA0002916310409F4F4C5E0C7AAE52A16310409F41CC75CF4EDE12E16310409F43DC6C8
:202CC000FEE12F16310409F43CC6CFC73BE52316310409F40FC74CE52416310409F0C5C780
:202CE00029E4222E22E0322E33E2E32E37E0F32E2FEA37E039AF28AF4FE9C42E47E0D42E75
:202D000000E010E036C78091480281110C94802B0C947B2B80914802882311F40C947B2B17
:202D20000E94425A82E50E942F56882309F461C10E94B3556B017C0120E030E0A9010E940E
:202D400009F8882309F485C18091AF079091B007A091B107B091B20788AF99AFAAAFBBAFC0
:202D60004090B3075090B4076090B5077090B60720912F07309130074091310750913207C3
:202D80002CAF3DAF4EAF5FAF8091330790913407A0913507B09136072C968CAF9DAFAEAF29
:202DA000BFAF2C9768AD79AD8AAD9BAD0E9409F881110DC02C962CAD3DAD4EAD5FAD2C97D7
:202DC000C301B2010E9409F8882309F442C111E092E02916310409F010E020E030E0A901B4
:202DE000C701B6010E9409F8881F8827881F181759F020E030E040E85FEB64962CAF3DAFF9
:202E00004EAF5FAF64970AC080E090E0A0E8BFE364968CAF9DAFAEAFBFAF649728AD39ADE6
:202E20004AAD5BAD6CAD7DAD8EAD9FAD0E9432FC28966CAF7DAF8EAF9FAF2897A301920173
:202E40002C966CAD7DAD8EAD9FAD2C970E9432FC24966CAF7DAF8EAF9FAF249728962CAD75
:202E60003DAD4EAD5FAD2897CA01B9010E946EF84B015C0124962CAD3DAD4EAD5FAD24972D
:202E8000CA01B9010E946EF89B01AC01C501B4010E9433FC0E949EFE60966CAF7DAF8EAF58
:202EA0009FAF609720E030E040E05FE30E946EF84B015C019B01AC01C701B6010E9432FC12
:202EC000A0966CAF7DAF8EAF9FAFA097A5019401C701B6010E9433FC9B01AC01A0966CAD90
:202EE0007DAD8EAD9FADA0970E946EF86B017C0120E030E0A9010E9459FE87FD07C0C70133
:202F0000B6010E949EFE9B01AC0103C020E030E0A90164966CAD7DAD8EAD9FAD64970E9495
:202F20006EF84B015C0124966CAD7DAD8EAD9FAD2497905860962CAD3DAD4EAD5FAD6097A4
:202F40000E940FFDA50194010E946EF86B017C012CAD3DAD4EAD5FAD68AD79AD8AAD9BAD13
:202F60000E9433FC20E030E040E05FE30E946EF89B01AC01C701B6010E9433FC28AD39ADB2
:202F80004AAD5BAD0E9432FC6B017C012C962CAD3DAD4EAD5FAD2C97C301B2010E9433FCE2
:202FA00020E030E040E05FE30E946EF868AF79AF8AAF9BAF60962CAD3DAD4EAD5FAD60971E
:202FC00028966CAD7DAD8EAD9FAD28970E940FFDA50194010E946EF89B01AC0168AD79AD35
:202FE0008AAD9BAD0E9433FCA30192010E9432FC14C089E40E942F56882329F00E94B355A4
:203000006B017C0103C0C12CD12C76018AE40E942F56882309F10E94B3552C966CAF7DAFB6
:203020008EAF9FAF2C9720E030E0A901C701B6010E9409F881111FC020E030E0A9012C9679
:203040006CAD7DAD8EAD9FAD2C970E9409F8811112C0ECE7F2E208C420E030E0A901C701E7
:20306000B6010E9409F88823A1F32C961CAE1DAE1EAE1FAE2C97A7019601505828AF39AF5E
:203080004AAF5BAF2C968CAD9DADAEADBFAD2C97B0588CAF9DAFAEAFBFAFCA01B9010E94DD
:2030A0006EF84B015C012CAD3DAD4EAD5FADCA01B9010E946EF89B01AC01C501B4010E9444
:2030C00033FC0E949EFEA4966CAF7DAF8EAF9FAFA4972091AF073091B0074091B1075091F3
:2030E000B20728962CAF3DAF4EAF5FAF2897A701960128966CAD7DAD8EAD9FAD28970E94A0
:2031000033FC64966CAF7DAF8EAF9FAF64978091B3079091B407A091B507B091B607609631
:203120008CAF9DAFAEAFBFAF60972C962CAD3DAD4EAD5FAD2C97BC01CD010E9433FCA09665
:203140006CAF7DAF8EAF9FAFA09720912F0730913007409131075091320768962CAF3DAF9F
:203160004EAF5FAF689764962CAD3DAD4EAD5FAD649768966CAD7DAD8EAD9FAD68970E941D
:2031800032FC6B017C018091330790913407A0913507B09136076C968CAF9DAFAEAFBFAF32
:2031A0006C97A0962CAD3DAD4EAD5FADA097BC01CD010E9432FC4B015C012091B7073091A1
:2031C000B8074091B9075091BA07A8962CAF3DAF4EAF5FAFA897609137077091380780912E
:2031E000390790913A070E9432FC24966CAF7DAF8EAF9FAF2497A701960168AD79AD8AAD65
:203200009BAD0E946EF82B013C01A50194016CAD7DAD8EAD9FAD0E946EF89B01AC01C301DB
:20322000B2010E9433FC2B013C01A501940168AD79AD8AAD9BAD0E946EF84B015C01A70153
:2032400096016CAD7DAD8EAD9FAD0E946EF89B01AC01C501B4010E9432FCA30192010E9498
:20326000A6FC6B017C0120E030E0A9010E9409F887FF0AC02BED3FE049EC50E4C701B601F7
:203280000E9433FC6B017C0132E02316310451F42BED3FE049EC50E4C701B6010E9432FCC0
:2032A0006B017C0120E030E0A901C701B6010E9409F8811128C068962CAD3DAD4EAD5FAD07
:2032C000689728966CAD7DAD8EAD9FAD28970E9409F8811118C06C962CAD3DAD4EAD5FADCF
:2032E0006C9760966CAD7DAD8EAD9FAD60970E9409F8811108C07BEDC72E7FE0D72E79ECF1
:20330000E72E70E4F72EA7019601A4966CAD7DAD8EAD9FADA4970E946EF84B015C0120E0F0
:2033200030E0A90124966CAD7DAD8EAD9FAD24970E9409F88823E9F0A5019401C501B401B7
:203340000E946EF84B015C0124962CAD3DAD4EAD5FAD2497CA01B9010E946EF89B01AC01A7
:20336000C501B4010E9433FC0E949EFE4B015C010DC020E030E0A901C501B4010E9459FE1F
:2033800087FF04C0B7FAB094B7F8B0942FE632E143E85AE3C501B4010E9409F887FF02C005
:2033A0000C947B2BC501B4010E94A8FD0E947CFD2E967FAF6EAF2E97672B31F481E090E08E
:2033C0002E969FAF8EAF2E974090BB075090BC076090BD077090BE072E96AEADBFAD2E97DB
:2033E000BD0180E090E00E940DF84B015C019B01AC01C701B6010E940FFD28966CAF7DAF74
:203400008EAF9FAF2897A501940124966CAD7DAD8EAD9FAD24970E940FFDA4966CAF7DAFB9
:203420008EAF9FAFA497A301920160913B0770913C0780913D0790913E070E9432FCA501E7
:2034400094010E940FFDAC966CAF7DAF8EAF9FAFAC9728962CAD3DAD4EAD5FAD2897CA01C0
:20346000B9010E946EF820E030E040E05FE30E946EF89B01AC0160E070E080E89FE30E94AB
:2034800032FC68966CAF7DAF8EAF9FAF6897A8962CAD3DAD4EAD5FADA89729873A874B87A5
:2034A0005C874D865E866F86788A6091460270914702072E000C880B990B0E940FF8209126
:2034C000390230913A0240913B0250913C020E946EF82AE037ED43E25CE30E946EF86CABCE
:2034E0007DAB8EAB9FAB0E9402409B01AC0128533F4F4F4F5F4F6C962CAF3DAF4EAF5FAFCB
:203500006C9748AC59AC6AAC7BAC22242394312C39E121963FAF21972E964EAD5FAD2E9711
:203520004215530509F44CC10E9479DE0E940240DC01CB016C962CAD3DAD4EAD5FAD6C977D
:20354000821B930BA40BB50BB7FD10C00E9402409B01AC0128533F4F4F4F5F4F6C962CAFDE
:203560003DAF4EAF5FAF6C970E94BE7321963FAD2197315021963FAF2197332309F445C0ED
:203580002CAD3DAD4EAD5FAD68966CAD7DAD8EAD9FAD68970E946EF86B017C019201A30172
:2035A00028966CAD7DAD8EAD9FAD28970E946EF8A70196010E9433FC7B018C019201A3016C
:2035C00068966CAD7DAD8EAD9FAD68970E946EF84B015C012CAD3DAD4EAD5FAD28966CADD2
:2035E0007DAD8EAD9FAD28970E946EF89B01AC01C501B4010E9432FC2B013C01C701D801B5
:203600008CAF9DAFAEAFBFAF55C0B10180E090E00E940DF828962CAD3DAD4EAD5FAD2897D3
:203620000E946EF84B015C010E940CFD6B017C01C501B4010E9494FE4B015C01A7019601AE
:2036400068AD79AD8AAD9BAD0E946EF82B013C012C962CAD3DAD4EAD5FAD2C97C501B40175
:203660000E946EF8A30192010E9433FC2B013C01A501940168AD79AD8AAD9BAD0E946EF8D4
:203680004B015C012C962CAD3DAD4EAD5FAD2C97C701B6010E946EF89B01AC01C501B401E7
:2036A0000E9432FC6CAF7DAF8EAF9FAF49E121964FAF21979201A30164966CAD7DAD8EAD22
:2036C0009FAD64970E9433FC69837A838B839C832CAD3DAD4EAD5FADA0966CAD7DAD8EAD3E
:2036E0009FADA0970E9433FC6D837E838F839887A4962CAD3DAD4EAD5FADA49769857A8528
:203700008B859C850E9433FC69877A878B879C87AC962CAD3DAD4EAD5FADAC976D857E853D
:203720008F8598890E9433FC6D877E878F87988B80911302882321F0CE0101960E94DA701D
:20374000E090D4091CA61DA61EA61FA689819A81AB81BC8188A399A3AAA3BBA38D819E8141
:20376000AF81B8858CA39DA3AEA3BFA389859A85AB85BC8588A799A7AAA7BBA7AE01485DA6
:203780005F4FBE016C5D7F4FCE0180960E942CE4CE018C966C018E010C5C1F4F9E01235FAA
:2037A0003F4FAE01485D5F4FBE016C5D7F4F0C970E94D781882321F09FEF291A390AACCE3C
:2037C000E090D40918AA19AA1AAA1BAA80912F0790913007A0913107B091320788A399A3A5
:2037E000AAA3BBA38091330790913407A0913507B09136078CA39DA3AEA3BFA3809137071B
:2038000090913807A0913907B0913A0788A799A7AAA7BBA7AE01485D5F4FBE016C5D7F4FDB
:20382000CE0180960E942CE4DE01D0966D018E010C5C1F4F2BE337E0AE01485D5F4FBE01F3
:203840006C5D7F4FCE0180960E94D78180E1EFE2F7E0AFEAB7E001900D928A95E1F70C94F2
:203860007B2B0E944156F80184918F010F5F1F4F8111F7CFE9EDF1E084918F010F5F1F4F6F
:20388000882311F40C947B2B0E944156F801F4CF80E50E942F56882329F00E9473556B0117
:2038A0007C0103C0C12CD12C760183E50E942F56882361F00E94B35520E030E04AE754E4B9
:2038C0000E946EF80E947CFD6B017C010E94A68F8091F60F811105C060E08FEE91E00E94C8
:2038E0000ABF0E940240C60ED71EE81EF91E0E940240DC01CB018C199D09AE09BF09B7FD2A
:2039000002C00C947B2B0E94BE73F1CF80919E078770873011F00C94852B8FE40E942F56BD
:20392000882319F00E94A45503C08FE40E94E65581110C947B2B0C94852B0E94D95B0C9487
:203940007B2BC090AF07D090B007E090B107F090B20788E50E942F56811109C020E030E044
:2039600048EA51E4C701B6010E9433FC02C00E94B35568A379A38AA39BA3C090B307D09028
:20398000B407E090B507F090B60789E50E942F56811109C020E030E040E251E4C701B6012D
:2039A0000E9433FC02C00E94B3559B01AC0169837A838B839C8368A179A18AA19BA10E943F
:2039C000CC72882311F40C947B2B80E00E948F5B0E94A45285E40E942F56882321F00E9441
:2039E000A455182F04C085E40E94E65511E086E50E942F56882321F00E948355262F01C0AE
:203A000021E0412FBE016F5F7F4FCE0180960E9477906B017C019B01AC010E94DFFE811109
:203A20005FC088A099A0AAA0BBA020E030E0A901C501B4010E9409F887FF05C027E137EB14
:203A400041E558EB04C027E137EB41E558E3C501B4010E9433FCAB01BC018FE192E00E9475
:203A60009DCF89809A80AB80BC8020E030E0A901C501B4010E9409F887FF05C027E137EB03
:203A800041E558EB04C027E137EB41E558E3C501B4010E9433FCAB01BC018AE192E00E943A
:203AA0009DCF20E030E0A901C701B6010E9409F887FF05C027E137EB41E558EB04C027E114
:203AC00037EB41E558E3C701B6010E9433FCAB01BC0185E192E00E949DCF8AE00E94415621
:203AE0000E948B520E9408A80C947B2B10923E030C947B2B20933E030C947B2B0E94B355A2
:203B00002B013C01133049F0F60120813181428153810E9432FC2B013C01A8ADB9AD2D912D
:203B20003D914D915C91C301B2010E9432FC4B015C012DEB37E346E855EB0E9459FE87FDDF
:203B400020C02DEB37E346E855E3C501B4010E9409F81816B4F01F5FB4E0EB0EF11CE8AD50
:203B6000F9AD3496F9AFE8AFF4E0CF0ED11C143039F1D1018D911D010E942F56882359F35E
:203B8000BDCF133051F44092BB075092BC076092BD077092BE0701E0DECFA5019401F7019A
:203BA00060817181828193810E9433FCD7016D937D938D939C931397812F0E947154CBCFB8
:203BC000002309F44EC020E030E0A9016091BB077091BC078091BD079091BE070E9433FCFA
:203BE00020916C0630916D0640916E0650916F060E946EF80E9464FE60936C1070936D10D8
:203C000080936E1090936F109091261080912710981719F00E94488F24C00E94A68F8091D5
:203C20006F00982F927081FF05C080916F008D7F80936F0040916C1050916D1060916E10DF
:203C400070916F1040933013509331136093321370933313992329F080916F0082608093DC
:203C60006F000E9408A80C947B2B0E94D5920C947B2B80919006909191068537910509F440
:203C800076C70CF0B8C08C34910509F497C40CF050C08931910509F4A0C21CF584319105AE
:203CA00009F4A9C17CF48131910509F41EC22CF4029708F4A3C10C942A2B429709F4EBC574
:203CC0000C942A2B8631910509F460C20CF45AC28731910509F460C2489709F473C20C9449
:203CE0002A2B8E31910509F42EC384F48B31910509F487C20CF477C28C31910509F419C3B7
:203D00004D9711F40C947B2B0C942A2B8032910509F41DC30CF467C38A32910509F419C404
:203D20008B34910511F00C942A2B0E94EEE10C947B2B8A36910509F46BC5B4F58435910506
:203D400009F4A9C5E4F48135910509F48DC54CF48D34910511F00C942A2B0E9425E20C94AF
:203D60007B2B8235910509F493C58335910511F00C942A2B81E080933D030C947B2B8C35FC
:203D8000910509F4D4C534F48535910509F4B6C50C942A2B8836910509F414C48936910594
:203DA00009F4D6C40C942A2B8F36910509F448C484F48C36910509F496C40CF445C58D361F
:203DC000910509F405C58E36910509F426C40C942A2B8137910509F491C40CF488C48237AB
:203DE000910509F42CC68337910511F00C942A2BE4E0F4E061C68D3231E0930711F40C942A
:203E0000EC280CF079C0893C910509F4DBC77CF58C38910509F4DFC4ACF48737910509F403
:203E200001C70CF4B3C68837910509F4FEC68937910511F00C942A2B10929403109293036E
:203E40000C947B2B8B39910509F49DC434F48139910509F4F0C60C942A2B8E3B910509F4E8
:203E6000D4C4883C910509F45DC70C942A2B833D910511F40C941A2834F58C3C910509F479
:203E8000DBC764F48B3C910511F00C942A2B69E4E62E62E0F62E04E216E0BEC78D3C91054E
:203EA00011F40C9491278E3C910511F00C942A2B49E4C42E42E0D42E56E9E52E53E0F52E64
:203EC00010E00C9404288D3D910511F40C942A283CF48C3D910511F40C941D280C942A2B61
:203EE000823E910511F40C9499288C32914011F40C94C3280C942A2B8C3AA1E09A0711F405
:203F00000C941728A4F58039E1E09E0711F40C94D929C4F48F3221E0920711F40C9443293F
:203F200014F40C94EF28803341E0940711F40C9446298336914011F00C942A2BECE7F2E218
:203F40000C94C6298239A1E09A0711F40C94E22914F40C94DC298A39E1E09E0709F4CBC3E4
:203F6000843A914011F40C94E8290C942A2B883F31E0930711F40C94842AECF4853F51E06D
:203F8000950711F40C94722A4CF4843F914011F00C942A2B0E94549C0C947B2B863FE1E01C
:203FA0009E0711F40C94752A873F914011F40C94782A0C942A2B8B3823E0920711F40C9441
:203FC0007B2B6CF48C3042E0940711F40C94A72A8335934011F40C94B02A0C942A2B803A33
:203FE000A3E09A0709F4F2C1873E934011F40C94152B0C942A2BE2E5F2E086C0A0908E06D8
:20400000B0908F0680E50E942F56882359F00E9473556B017C0111E0672B682B692B31F429
:2040200010E004C010E0C12CD12C760183E50E942F56882311F40C94732C0E94B35520E053
:2040400030E04AE754E40E946EF80E947CFD6B017C0111110BC0672B682B692B39F4A11453
:20406000B10421F0F5018081811102C010E001C011E00E94A68F112329F061E0C5010E94C0
:2040800044BF05C060E087E292E00E940ABF83E08093150781E08093E309C114D104E10451
:2040A000F104B1F00E940240C60ED71EE81EF91E0E940240DC01CB018C199D09AE09BF0949
:2040C000B7FF0DC08091E30981110C94782C07C08091E309882319F00E94BE73F9CF0E94D5
:2040E00018C51092E3090C947B2B60E08AE392E00E940ABF5F988A9880910801817080934E
:20410000060112980C947B2B84918F010F5F1F4F882321F00E944156F801F6CF10920E13B1
:2041200081EC90E10E9412AE8BE1E1ECF0E1DE01159601900D928A95E1F78091BF10909183
:20414000C0109C838B8383EF92E09A83898340E050E0BE016F5F7F4F80E090E00E94A9D3BC
:20416000CE0101960E944D73E3E4F2E084918F010F5F1F4F882311F40C947B2B0E9441562E
:20418000F801F4CF0E9443B70C947B2B10929010109291100C947B2BE0918E06F0918F069B
:2041A0008081882329F0803209F410823196F8CF40E061E080918E0690918F060E9461B5F7
:2041C0000C947B2B80919110882319F081E0809390100E94EEE10C947B2B109290100E9484
:2041E00010E20C947B2B80919110882311F40C947B2B83E50E942F5681110C947C2C0C94D6
:204200007B2B83E40E94E655882309F450C0E0E9F2E084918F010F5F1F4F882321F00E9482
:204220004156F801F6CF80915C12811103C0E3E6F2E012C0BE016F5F7F4F89E592E10E940A
:20424000DAAC8E010F5F1F4FD8018D918D01882349F10E944156F8CF84918F010F5F1F4F82
:20426000882301F10E944156F801F6CF88EEC82E82E0D82EE12CF12C20E08091620790E0C2
:204280000E2C02C0959587950A94E2F780FD08C2AFEFEA1AFA0AB2E0CB0ED11CE5E0EE1657
:2042A000F10459F78AE00E9441560C947B2B80919110882339F080919010882319F0EDE612
:2042C000F2E003C0EFE7F2E028C084918F010F5F1F4F882321F00E944156F801F6CF609194
:2042E0000A1370910B1380910C1390910D134AE00E94E6588FE20E94415660910613709152
:20430000071380910813909109134AE00E94E6588AE00E9441560C947B2B84918F010F5F14
:204320001F4F882311F40C947B2B0E944156F801F4CF40E060E080918E0690918F060E94C7
:2043400061B50C947B2B0E94E8E90C947B2B8091901081110E94A68F80919110882311F4CC
:204360000C947B2B80E50E942F56882319F00E94A45503C080E50E94E655182F482F61E018
:2043800080918E0690918F060E9461B583E50E942F56882381F00E948355AB01BC014093A9
:2043A0000A1350930B1360930C1370930D1389E592E10E94CBAB80919110882319F081E0EA
:2043C0008093901011110C947B2B03CF80918E0690918F0621E020938F1040E060E00E9440
:2043E00061B50C947B2B0E949FE17B018C0120E831E541E050E00E94F7FBC9016DE671E0C5
:204400000E94FBFE4B015C01C801B70120E13EE040E050E00E94F7FBCA01B90128E130E036
:2044200040E050E00E94F7FB762E672EC62ED72E9CE3292E312C412C512CC801B701A20125
:2044400091010E94F7FBF62EE72ECA01B901A20191010E94F7FBCB018E010F5F1F4F8114E3
:20446000910499F0EF92FF927F936F936F927F92BF92AF929F928F9287EC92E09F938F93C9
:204480001F930F930E94A3F713C0A114B104B1F0EF92FF927F936F936F927F92BF92AF92E4
:2044A00087EB92E09F938F931F930F930E94A3F70FB6F894DEBF0FBECDBF30C0CD2879F09F
:2044C000EF92FF927F936F936F927F928BEA92E09F938F931F930F930E94A3F7E9CF892B6D
:2044E00069F0EF92FF927F936F9383EA92E09F938F931F930F930E94A3F7DACFEF92FF92BF
:204500008FE992E09F938F931F930F930E94A3F70F900F900F900F900F900F9060E0C8010A
:204520000E9444BFE9E4F8E284917F019FEFE91AF90A882321F00E944156F701F5CFB8019C
:204540008BED92E00E94D3CF8AE00E9441560C947B2B83E50E942F56882311F40C947B2BBF
:204560000E949355E82E80E50E942F56882339F00E949355182F87FF03C00C947B2B1DE0DE
:2045800089E40E942F56882351F00E94A45581110C94E92CEDE0F5E08AE395E00AC089E4FE
:2045A0000E94E655F4CF31968E179F0711F40C94E92C24911213F7CF0C94BE2C0E9410E2D1
:2045C0000C947B2B88E690E00E94515981110C947B2B8091620783FF02C00C947B2B83E527
:2045E0000E942F568823A9F00E94B3550E9477FDCB010E94A5BE0E94B35520E030E04AEAD1
:2046000052E40E9409F8181624F00E9425E20E9418C50E94F0D00C947B2B8EE40E942F5616
:20462000882311F40C947B2B0E9483556093D0097093D1098093D2099093D3090C947B2B2E
:2046400083E50E94E655882359F083E50E942F56882319F00E94935501C080E080936207B7
:20466000E9E4F8E284918F010F5F1F4F811103C0E6EFF2E004C00E944156F801F3CF849149
:204680008F010F5F1F4F882321F00E944156F801F6CF809162078111E9CDE2EFF2E018C0BE
:2046A000BB24B394B20E222319F08CE20E944156F60185919491FC0184918F010F5F1F4F6F
:2046C000882321F00E944156F801F6CF2B2DE0CD84918F010F5F1F4F882309F4E3CD0E94A7
:2046E0004156F801F5CF10920F020C947B2B8DEF92E00E946F730E94CFA0FDC783E50E941C
:204700002F56811103C0E9E4F8E20BC00E9493558D3318F480932002EEC78CE38093200269
:20472000EAC784918F010F5F1F4F882321F00E944156F801F6CF4091200250E060E070E0E1
:2047400086E093E00E9480CF8AE00E944156D3C789E690E00E945159811111C0EDE0F3E024
:2047600084918F010F5F1F4F882321F00E944156F801F6CF0E945D478AE00E94415610927A
:2047800015070C94FE2C83E50E942F56882309F4B2C70E949355182F8D3308F01CE3109358
:2047A00022070E9402406B017C01212F30E0A8EEB3E00E9423FCC60ED71EE81EF91EC09281
:2047C0001E07D0921F07E0922007F092210793C70E94FBE790C78091620783FD8CC783E5FF
:2047E0000E942F56882309F486C70E94B3550E9477FD6936710514F069E670E0709380079B
:2048000060937F070E94DDDB76C70E94D7A973C780E50E942F56811106C083E50E942F56B9
:20482000882359F005C00E949355811164C7F5CF0E9483556F3F710510F06FEF70E0709365
:2048400082076093810757C780E50E942F56811105C010928207109281074DC70E94835570
:20486000672B09F048C7F5CF0E946D490E94E38F109282071092810768EE73E080E090E0A0
:204880000E9454BE60E080E193E00E940ABF33C710923D0330C783E50E942F56882399F04F
:2048A0000E94B35520E030E04AE754E40E946EF80E947CFD6093210270932202809323023D
:2048C0009093240218C788E50E94E65581110C948D2C89E50E94E65581110C948D2C8AE5D6
:2048E0000E94E65581110C948D2C85E40E94E65581110C948D2C0E94E38FFDC683E50E94DE
:20490000E655882309F4F7C60E94B35520E030E04AE754E40E946EF80E947CFD60931A079D
:2049200070931B0780931C0790931D07E4C619E4C12E12E0D12E00E6E02E06E0F02E10E066
:20494000D6018D916D010E94E655882309F46DC0133009F063C00E94B3554B015C0120E090
:2049600030E040EA51E40E9409F887FF4EC0A501940160916C0670916D0680916E069091D9
:204980006F060E940FFD2B013C019B01AC0160915C0670915D0680915E0690915F060E94EE
:2049A0006EF860935C0670935D0680935E0690935F06A30192016091300670913106809130
:2049C0003206909133060E946EF86093300670933106809332069093330660910E0A709129
:2049E0000F0A8091100A9091110A0E940DF8A30192010E946EF80E947CFD60930E0A709328
:204A00000F0A8093100A9093110A80926C0690926D06A0926E06B0926F0607C00E94B3552B
:204A2000F70160837183828393831F5FF4E0EF0EF11C143009F084CF0E9455D25CC60E9413
:204A4000A68F83E50E942F56882309F40AC90E9483556230710509F004C90E9407788BE53E
:204A60000E9441566091910770919207809193079091940742E00E94A75940919507509161
:204A80009607609197077091980782E293E00E949DCF4091990750919A0760919B077091DE
:204AA0009C078FE193E00E949DCF8DE50E9441568AE00E9441561FC684918F010F5F1F4FAE
:204AC000882321F00E944156F801F6CF60E084EF93E00E94D1A761E08DEE93E00E94D1A79A
:204AE00061E082EE93E00E94D1A761E082ED93E00E94D1A760E089EC93E00E94D1A761E0B8
:204B00008FEB93E00E94D1A761E085EB93E00E94D1A761E08DEA93E00E94D1A761E08FE952
:204B200093E00E94D1A760E081E993E00E94D1A760E082E893E00E94D1A760E084E793E05C
:204B40000E94D1A760E08EE593E00E94D1A760E08DE493E00E94D1A760E088E393E00E94FD
:204B6000D1A761E085E293E00E94D1A7C4C580918E0690918F06DC012C91222321F060E074
:204B80000E9444BFB8C50E9418C5B5C500918E0610918F0683E0D12C40E08150E1F0F80184
:204BA0009081292F2B7F2134C1F721812133A9F7913421F0953421F441E002C0DD24D39440
:204BC00098012E5F3F4F89012F5F3F4FD8019C919032C9F3E2CF442369F0E9E4F8E28491CA
:204BE0007F01BFEFEB1AFB0A882321F00E944156F701F5CFDD2069F0E9ECF4E084917F0138
:204C00002FEFE21AF20A882321F00E944156F701F5CFD8018D918D01882309F443CB0E94F0
:204C20004156F7CF0E94D1E766C581E0809394038093930360C583E50E942F56882319F076
:204C40000E94835502C060E070E08B01112702301105D4F0ECE7F2E284918F010F5F1F4F90
:204C6000811103C0EDECF4E004C00E944156F801F3CF84918F010F5F1F4F882309F43BC551
:204C80000E944156F801F5CF88E40E942F568823A1F00E9483556A3A710534F0663F71057C
:204CA0002CF065EF70E002C06AEA70E0F801EE0FFF1FE057FA4F7183608386E40E942F56D2
:204CC0008823A9F00E948355F801EE0FFF1FEC56FA4F718360836F3F710519F014F06FEF11
:204CE00070E077FF02C060E070E07183608382E40E942F56882309F4FEC40E9483556530BF
:204D0000710534F06A3671052CF069E670E002C065E070E0000F111FF801E457FA4F718321
:204D20006083E9C488EC90E00E9451598111E3C484E40E94E655882309F441C00E94B355E2
:204D40006B017C0111E020E030E0A9010E9409F8811101C010E010938B0320E030E0A901EE
:204D6000C701B6010E9409F8882349F10E94B355E0913C05B4E0EB9FF0011124E957FC4F01
:204D8000608371838283938320E030E0A90160918703709188038091890390918A030E9473
:204DA00009F881110CC080E090E0A0EEBFE38093870390938803A0938903B0938A030E9418
:204DC00076E299C479E4E72E72E0F72E04E316E0E4E4CE2EE6E0DE2EF70181917F010E9496
:204DE000E655882351F00E94B3550E947CFDD8016D937D938D939C9313970C5F1F4FC01636
:204E0000D10651F70E9420D176C40C5F1F4FB6E004331B0709F46FC4F70181917F010E9482
:204E2000E655882391F30E94B355D8016D937D938D939C931397E9CF83E50E942F5688238A
:204E4000A1F00E94B35560934C0670934D0680934E0690934F0660934406709345068093FF
:204E600046069093470610E001C011E080E50E942F56882359F00E94B35560934C06709362
:204E80004D0680934E0690934F0610E082E50E942F56882359F00E94B35560934806709380
:204EA000490680934A0690934B0610E084E50E942F56882359F00E94B3556093440670936E
:204EC0004506809346069093470615C4112309F412C440914C0650914D0660914E0670913B
:204EE0004F0685EF94E00E949DCF409148065091490660914A0670914B0682EF94E00E94FE
:204F00009DCF409144065091450660914606709147068FEE94E00E949DCF8AE00E944156B1
:204F2000EAC381E50E94E655882351F00E94735560935D0770935E0780935F079093600769
:204F400083E50E94E655882351F00E94B3556093200670932106809322069093230684E543
:204F60000E94E655882351F00E94B35560931C0670931D0680931E0690931F0688E50E94F5
:204F8000E655882351F00E94B3556093500670935106809352069093530689E50E94E6556B
:204FA000882351F00E94B355609354067093550680935606909357068AE50E94E6558823CA
:204FC00051F00E94B355609358067093590680935A0690935B0685E40E94E655882309F44E
:204FE0008AC30E94B35560935C0670935D0680935E0690935F067FC31F5FB4E0EB0EF11CA6
:20500000133011F40C94311EF60181916F010E94E655882389F30E94B355D7016D937D934A
:205020008D939C931397812F0E947154E5CF0E94D2A861C30E94F3A65EC383E50E942F5681
:20504000882309F458C30E948355709347026093460251C38DED90E00E94515981114BC3A2
:2050600083E50E942F56811103C0E9E4F8E23BC000913C0510E00E948355000F111FF80136
:20508000EC5BFD4F7183608380913C0590E08C01000F111F000F111FF801E05CFD4F7F01D8
:2050A000880F991FFC01EC5BFD4F60817181072E000C880B990B0E940FF82AE037ED43E2CA
:2050C0005CE30E946EF8F801E650F64F20813181428153810E946EF8D7016D937D938D931B
:2050E0009C93139708C384918F010F5F1F4F882321F00E944156F801F6CF85E40E94415636
:2051000080913C05805D0E944156E0913C05F0E0EE0FFF1FEC5BFD4F6081718185E095E04A
:205120000E94BACF85E20E9441568AE00E944156E2C280E50E94E655882309F4DCC20E9433
:2051400083556B017C0183E50E942F56882321F00E9483558B0102C00FEF1FEFC80101960F
:20516000039708F0C8C2D7FCC6C22C2DEDE0F5E08AE395E03491231709F400C431968E17AF
:205180009F07C1F7FEC383E50E942F56882319F00E94835502C064E071E079A368A380E550
:2051A0000E942F56882339F00E9483556938B3E17B0730F402C068EE73E07A83698304C087
:2051C00088E893E19A838983BE01605E7F4FCE0101960E9485B88FC20E9450A68CC283E593
:2051E0000E94E655182F882371F00E94B3550E9477FD709332026093310221E0672B09F0D6
:2052000020E02093610780E50E94E655882359F02091310230913202232B11F00E94A4557A
:205220008093610768C2111166C2E9E4F8E284918F010F5F1F4F882321F00E944156F80169
:20524000F6CF80916107882319F067E073E002C06AE073E08FE495E00E94D3CF6091310213
:20526000709132028EE395E00E94BACFEAE3F5E084918F010F5F1F4F882309F43CC20E947D
:205280004156F801F5CF0E9405A135C280E50E94E655882351F00E94B35560933C1370935E
:2052A0003D1380933E1390933F1389E40E94E655882381F00E94B3552CEA35EC47E25EE314
:2052C0000E946EF8609338137093391380933A1390933B1384E40E94E655882381F00E9465
:2052E000B3552CEA35EC47E25EE30E940FFD60933413709335138093361390933713E9E43C
:20530000F8E284918F010F5F1F4F882321F00E944156F801F6CF40913C1350913D1360913D
:205320003E1370913F138AE695E00E949DCF2CEA35EC47E25EE3609138137091391380919B
:205340003A1390913B130E940FFDAB01BC0186E695E00E949DCF2CEA35EC47E25EE36091F9
:2053600034137091351380913613909137130E946EF8AB01BC0182E695E00E949DCF8AE012
:205380000E944156B8C10E944156F80184918F010F5F1F4F8111F7CFEEE6F5E084918F0102
:2053A0000F5F1F4F882309F4A6C10E944156F801F5CF0E94A68F9FC181E00E94D1530E940C
:2053C00008A899C180E00E94D1530E9408A893C183E50E94E655882349F00E94A455182FEC
:2053E000811106C080E00E948F5B02C0109149078091AF079091B007A091B107B091B20734
:2054000089839A83AB83BC838091B3079091B407A091B507B091B6078D839E83AF83B887C2
:205420008091B7079091B807A091B907B091BA0789879A87AB87BC8786E50E94E655882331
:2054400021F08AEA95E00E9406F0812F0E948F5B111103C0E9E4F8E21DC080914907811122
:20546000F9CFECE7F2E284918F010F5F1F4F811103C0EBE8F5E004C00E944156F801F3CF87
:2054800084918F010F5F1F4F882321F30E944156F801F6CF84918F010F5F1F4F882321F098
:2054A0000E944156F801F6CF80914907882319F06EE073E002C062E173E08DE795E00E945C
:2054C000D3CF8AE00E9441564CE050E06FEA77E0CE0101960E9458FF892B09F40CC10E94FC
:2054E00008A809C10E94489C06C10E9421CD03C183E50E94E655882321F00E94A45591E084
:2055000089270E94C7C8F7C02093C0070E94B1961092C007882309F4EEC0E9E4F8E2849115
:205520008F010F5F1F4F811103C0E7ECF5E004C00E944156F801F3CF84918F010F5F1F4FC9
:20554000882309F4D8C00E944156F801F5CF80919010882309F4CFC081E080939310CBC08B
:205560008AE50E942F56811103C0E9E4F8E23BC00E94B3556B017C0120E030E040EA51EC94
:205580000E9459FE87FD0AC020E030E040EA51E4C701B6010E9409F818161CF4ECE7F2E24E
:2055A0000CC0C092AB07D092AC07E092AD07F092AE07A1C00E944156F80184918F010F5F03
:2055C0001F4F8111F7CFE2EDF5E084918F010F5F1F4F882309F48FC00E944156F801F5CFF3
:2055E0000E944156F80184918F010F5F1F4F8111F7CFE2EFF5E084918F010F5F1F4F8823CE
:2056000021F00E944156F801F6CF4091AB075091AC076091AD077091AE078FEE95E00E947C
:205620009DCF8AE00E94415666C081E0809348021092C20783E50E942F56882339F00E9407
:20564000A455811158C00E94407855C083E50E94E655F7CF0E94D5924EC0F09090060E945E
:20566000A68F1091490780E00E948F5BFF2029F1E9E4F8E284918F010F5F1F4F882321F0FB
:205680000E944156F801F6CF84E50E9441566F2D70E080E090E04AE00E94E65880E20E94A7
:2056A0004156E3E1F6E084918F010F5F1F4F882311F10E944156F801F6CF1092D409812F65
:2056C0000E948F5BE9E4F8E284918F010F5F1F4F882321F00E944156F801F6CF6091D40995
:2056E00070E081E096E00E94BACF8AE00E94415602C00E94D592109215070E9423787EC1B0
:205700000E94425A0E94C476F6CF0E94A68FB090490780E00E948F5B0E94A45211E010932B
:20572000940388E50E94E655A82E89E50E94E655082F8AE50E94E655982EA11004C0011197
:2057400004C0192505C0011102C010E001C0192D80E1EFEAF7E0AFE2B7E001900D928A952F
:20576000E1F782E50E942F56882361F00E94B3556B017C0120E030E0A9010E9409F888232C
:2057800069F105C0C12CD12C50E4E52EFE2C111104C0A11002C0002391F1C0923707D0929F
:2057A0003807E0923907F0923A07A70196016091B7077091B8078091B9079091BA070E9432
:2057C00009F887FF0BC019821A821B821C82BE016F5F7F4F87E397E00E94B353111105C03A
:2057E000A11003C0011106C00AC080E00E946C711123C1F381E00E946C71111103C099204E
:2058000009F460C080919E0783708330F9F060E087E092E00E940ABFE9E4F8E284918F0156
:205820000F5F1F4F811103C0E8EFF1E004C00E944156F801F3CF84918F010F5F1F4F8823AB
:2058400009F440C00E944156F801F5CF0E942C55E090B707F090B8070091B9071091BA0712
:20586000E0923707F09238070093390710933A0780E090E0A4E9B2E480932F07909330076A
:20588000A0933107B093320780E090E0AAEAB2E48093330790933407A0933507B09336078D
:2058A00019821A821B821C82FE0131966F019C01AD0160E070E084E992E40E94C35282E069
:2058C0000E946C710E942C5580919303809394038B2D0E948F5B0E948B5283E080933D025D
:2058E0000E9408A808CF11110C9436200C942F200E94BE730C9458200E948355AB01BC01AA
:2059000040930A1350930B1360930C1370930D1389E592E10E94CBABEECE0E94A68F88E568
:205920000E94E655882331F05F9A80919E078E7F80939E0789E50E94E655882331F08A9A0F
:2059400080919E078D7F80939E078AE50E94E655882359F080910801809581708093060153
:2059600080919E078B7F80939E0785E40E94E655882309F4C0CE0E945573BDCE0E94AEF3FB
:20598000BACE0E94A68FBC2C60E08C2D0E9453950F3FEFEF1E0759F48C2D0E94FD9431E0A2
:2059A00020E0892B09F030E0032F122F05C00130110561F401E010E08B2D0E94FD94801703
:2059C000910709F498CE0E94BE73F6CF00E010E0F3CF61E0812F0E9453956E2D812F0E943A
:2059E0002595F12CB701812F0E948F95193009F082CEF0928207E09281077DCEC559DF4F74
:205A00000FB6F894DEBF0FBECDBFDF91CF911F910F91FF90EF90DF90CF90BF90AF909F9086
:205A20008F907F906F905F904F903F902F9008952F923F924F925F926F927F928F929F9278
:205A4000AF92BF92CF92DF92EF92FF920F931F93CF93DF93CDB7DEB72F970FB6F894DEBFDB
:205A60000FBECDBFF8948FEF9FEF9093890080938800BAE0DB2E1F861E867894809183035F
:205A800090918403A0918503B0918603892B8A2B8B2B09F0D5C1809117138823D1F01092E4
:205AA00017138091151390911613892B91F01092440310921613109215139091261080911E
:205AC0002710981731F0809127108F5F8F70809327108091151390911613892B09F4B0C19B
:205AE00000917F0310918003209181033091820380917B0390917C03A0917D03B0917E0352
:205B00004091720350E060E070E0801B910BA20BB30B481759076A077B0710F4DB01CA0180
:205B2000482F800F911FA21FB31F80937F0390938003A0938103B0938203809184009091AC
:205B400085004E968090590390905A03A0905B03B0905C030091490310914A0320914B03FC
:205B600030914C03080D191D2A1D3B1D0093590310935A0320935B0330935C0337FD1CC0F9
:205B8000889A0091241310912513209126133091271380900002082C000C9908AA08BB08F5
:205BA000080D191D2A1D3B1D0093241310932513209326133093271380905D0390905E037C
:205BC000A0905F03B090600300914D0310914E0320914F0330915003080D191D2A1D3B1DBC
:205BE00000935D0310935E0320935F033093600337FD1CC08E9A00912813109129132091E1
:205C00002A1330912B1380900102082C000C9908AA08BB08080D191D2A1D3B1D0093281327
:205C20001093291320932A1330932B138090610390906203A0906303B09064030091510379
:205C4000109152032091530330915403080D191D2A1D3B1D0093610310936203209363032D
:205C60003093640337FD21C020910B01209528702093090100912C1310912D1320912E137B
:205C800030912F1380900202082C000C9908AA08BB08080D191D2A1D3B1D00932C13109338
:205CA0002D1320932E1330932F138090650390906603A0906703B0906803009155031091DB
:205CC00056032091570330915803080D191D2A1D3B1D009365031093660320936703309373
:205CE000680337FD1CC0149A0091301310913113209132133091331380900302082C000C70
:205D00009908AA08BB08080D191D2A1D3B1D00933013109331132093321330933313209114
:205D200084003091850028173907C8F30091590310915A0320915B0330915C0337FD15C03C
:205D40008090450390904603A0904703B0904803081919092A093B090093590310935A03D4
:205D600020935B0330935C03889800915D0310915E0320915F033091600337FD15C080908D
:205D8000450390904603A0904703B0904803081919092A093B0900935D0310935E032093E9
:205DA0005F03309360038E980091610310916203209163033091640337FD19C08090450396
:205DC00090904603A0904703B0904803081919092A093B0900936103109362032093630383
:205DE0003093640320910B012870209309010091650310916603209167033091680337FDE9
:205E000015C08090450390904603A0904703B0904803081919092A093B090093650310938F
:205E2000660320936703309368031498415041F0209184003091850028173907C8F381CE3C
:205E40008091830390918403A0918503B0918603892B8A2B8B2B09F0CEC5E0911513F091BB
:205E60001613309709F44DC780917F0390918003A0918103B091820340917B0350917C03C0
:205E800060917D0370917E0384179507A607B707D0F010924403109216131092151390910E
:205EA000261080912710981709F42BC7809127108F5F8F7080932710A0ED4A2EA7E05A2E33
:205EC000612C712CE5C340917703509178036091790370917A03481759076A077B0708F4B0
:205EE000A4C18090730390907403A0907503B090760386A997A9A0ADB1AD88169906AA06B8
:205F0000BB0608F076C181149104A104B10449F48091400390914103A0914203B09143031A
:205F200064C1B0E0AC2D882D392D2A2DF981EA817B816C815D814E819F815091F20F589FED
:205F4000712D66274091F30F489F700D611D1090F40F189E600D539F700D611D439F600D5F
:205F6000529F600DF72FE62FF79F512D44279927F69F500D411D9B1FE79F500D411D9B1F44
:205F8000E69F400D911DF42FE92FF79FA12D44279927F69FA00D411D9B1FE79FA00D411DCC
:205FA0009B1FE69F400D911DF42FE92F55278091400330914103209142030090AC050B2A2B
:205FC00009F483C04091A8054F9F51198B0B3B0B2B0B9091A9059F9F501981093B0B2B0B1D
:205FE000A091AA05AF9F801931092B0B4E9F501981093B0B2B0B9E9F801931092B0BAE9F7B
:2060000030192109F79FA12D44279927F69FA00D411D9B1FE79FA00D411D9B1FE69F400D07
:20602000911DF42FE92F4091A4054F9F510D8B1F3B1F2B1F9091A5059F9F500D811D3B1F05
:206040002B1FA091A605AF9F800D311D2B1F4E9F500D811D3B1F2B1F9E9F800D311D2B1FB9
:20606000AE9F300D211DF79FA12D44279927F69FA00D411D9B1FE79FA00D411D9B1FE69F9F
:20608000400D911DF42FE92F4091A0054F9F51198B0B3B0B2B0B9091A1059F9F50198109F2
:2060A0003B0B2B0BA091A205AF9F801931092B0B4E9F501981093B0B2B0B9E9F80193109C9
:2060C0002B0BAE9F3019210982C04091A8054F9F510D8B1F3B1F2B1F9091A9059F9F500D06
:2060E000811D3B1F2B1FA091AA05AF9F800D311D2B1F4E9F500D811D3B1F2B1F9E9F800DB5
:20610000311D2B1FAE9F300D211DF79FA12D44279927F69FA00D411D9B1FE79FA00D411DA5
:206120009B1FE69F400D911DF42FE92F4091A4054F9F51198B0B3B0B2B0B9091A5059F9FFD
:20614000501981093B0B2B0BA091A605AF9F801931092B0B4E9F501981093B0B2B0B9E9F04
:20616000801931092B0BAE9F30192109F79FA12D44279927F69FA00D411D9B1FE79FA00D3A
:20618000411D9B1FE69F400D911DF42FE92F4091A0054F9F510D8B1F3B1F2B1F9091A10555
:2061A0009F9F500D811D3B1F2B1FA091A205AF9F800D311D2B1F4E9F500D811D3B1F2B1F2B
:2061C0009E9F800D311D2B1FAE9F300D211D1124CA2EF983EA837B836C835D834E839F83BF
:2061E00090E0932BA0E0B0E0A22B25E23EE011E011C082A993A9A4A9B5A9F7CFB695A7954E
:2062000097958795110F2C5F3F4F4EE02134340709F446C4F9014591559165917491481728
:2062200059076A077B0750F33BC440916E0350916F036091700370917103481759076A072B
:206240007B0708F0B8C180916D0381111FC0DF01AE5BBF4FED90FD900D911C9113971D96B0
:206260002D913D914D915C9162A973A984A995A90E949DCE51E050936D03E0911513F0918A
:20628000161382A893A8A4A8B5A886C18091690390916A03A0916B03B0916C0342AD53AD37
:2062A00064AD75AD84179507A607B70708F06EC10097A105B10549F48090400390904103FB
:2062C000A0904203B090430367C130E04885882E292F8A2FE9857A856B855C859D85909176
:2062E000F20F989D612D55272090F30F289C600D511D1090F40F189C500D929F600D511D4D
:20630000229E500D989F500DE62F752FE69F912D22243324E59F900D211C331E769F900DD2
:20632000211C331E759F200C311CE22D732DE69F412D22243324E59F400D211C331E769F8F
:20634000400D211C331E759F200C311CE22D732D9927809040032091410380914203009038
:20636000AC05032A09F483C02090A8052E9E9119830A230B830B3090A9053E9E9019810867
:20638000230B830B4091AA054E9F80182109830B279E90198108230B830B379E801821093A
:2063A000830B479F20198109E69F412D22243324E59F400D211C331E769F400D211C331EC7
:2063C000759F200C311CE22D732D2090A4052E9E910D831E231F831F3090A5053E9E900D56
:2063E000811C231F831F4091A6054E9F800C211D831F279E900D811C231F831F379E800C03
:20640000211D831F479F200D811DE69F412D22243324E59F400D211C331E769F400D211C5D
:20642000331E759F200C311CE22D732D2090A0052E9E9119830A230B830B3090A1053E9E79
:2064400090198108230B830B4091A2054E9F80182109830B279E90198108230B830B379E11
:2064600080182109830B479F2019810982C02090A8052E9E910D831E231F831F3090A90527
:206480003E9E900D811C231F831F4091AA054E9F800C211D831F279E900D811C231F831F46
:2064A000379E800C211D831F479F200D811DE69F412D22243324E59F400D211C331E769FE6
:2064C000400D211C331E759F200C311CE22D732D2090A4052E9E9119830A230B830B3090CD
:2064E000A5053E9E90198108230B830B4091A6054E9F80182109830B279E90198108230B4A
:20650000830B379E80182109830B479F20198109E69F412D22243324E59F400D211C331E30
:20652000769F400D211C331E759F200C311CE22D732D2090A0052E9E910D831E231F831FEB
:206540003090A1053E9E900D811C231F831F4091A2054E9F800C211D831F279E900D811C0B
:20656000231F831F379E800C211D831F479F200D811D11244887E9877A876B875C879D87D7
:20658000912C922AA12CB12CA82A06C0E15BFF4F80809180A280B38085E29EE021E0FC016D
:2065A0004591559165917491481559056A057B0508F4D9C2E3C28091050290910602A091CC
:2065C0000702B0910802B7FF5BC0E95BFF4F80809180A280B38085E29EE021E0FC014591E5
:2065E000559165917491481559056A057B0550F4B694A79497948794220F0496AEE08134F3
:206600009A0761F72093720380E288169104A104B10408F447C320E2821A9108A108B108CB
:20662000811438E09306A104B10408F417C344E0949EC00111248B5D954FFC013296259151
:206640003491782D6627739FA001729F410D561F0694461F561F112460E070E0FC012591D0
:206660003491C901A0E0B0E0841B950BA60BB70B8093050290930602A0930702B0930802FB
:20668000409005025090060260900702709008028091151390911613892B09F0A4C10E9401
:2066A00028CF9093161380931513892B09F49BC1E0911513F0911613808183FF3EC085897D
:2066C0009689A789B08D8093241390932513A0932613B0932713818D928DA38DB48D8093EF
:2066E000281390932913A0932A13B0932B13858D968DA78DB0A180932C1390932D13A0936D
:206700002E13B0932F1381A192A1A3A1B4A18093301390933113A0933213B09333139091E6
:20672000261080912710981709F4B9CF809127108F5F8F7080932710B2CF058916892789CA
:20674000308D81E0011511052105310509F480E0818C928CA38CB48C81149104A104B10418
:2067600009F08260458D568D678D70A1411551056105710509F084608093440310926903B7
:2067800010926A0310926B0310926C031092730310927403109275031092760385A196A106
:2067A000A7A1B0A580937B0390937C03A0937D03B0937E03442455243201481A590A6A0A45
:2067C0007B0A4092650350926603609267037092680340926103509262036092630370920F
:2067E000640340925D0350925E0360925F03709260034092590350925A0360925B03709245
:206800005C03000F111F221F331F0093490310934A0320934B0330934C03880C991CAA1C56
:20682000BB1C80924D0390924E03A0924F03B0925003440F551F661F771F409351035093A7
:206840005203609353037093540341A152A163A174A1440F551F661F771F40935503509362
:2068600056036093570370935803880F991FAA1FBB1F8093450390934603A0934703B0939B
:20688000480310927F0310928003109281031092820382A593A5A4A5B5A580937703909365
:2068A0007803A0937903B0937A0386A597A5A0A9B1A980936E0390936F03A0937003B093E2
:2068C000710341A5EA5BFF4F508180913F0358130AC08091040290E0242F042E000C330B1C
:2068E0002817390731F050933F03409304020E94EFCE0E946DE78FEF9FEFDC0180930502A2
:2069000090930602A0930702B0930802E0911513F0911613DF01DE96ED90FD900D911C91D7
:2069200022A933A944A955A9E55BFF4F60817181828193810E949DCE10926D03E091151395
